:020000040000FA
:10000000F80400202D020000530200009D010000B2
:1000100000000000000000000000000000000000E0
:100020000000000000000000000000005702000077
:100030000000000000000000590200005B02000008
:100040005D0200005D020000EF5C0000B50F0000E3
:100050005D0200005D0200005D0200005D02000024
:10006000CB0800005D0200005D0200005D020000A0
:100070005D0200005D0200005D0200005D02000004
:100080005D0200005D0200005D0200005D020000F4
:100090005D0200005D0200005D0200005D020000E4
:1000A0005D0200005D0200005D0200005D020000D4
:1000B0005D0200005D0200005D0200005D020000C4
:1000C00000F002F800F05AF80CA030C808382418E4
:1000D0002D18A246671EAB4654465D46AC4201D180
:1000E00000F04CF87E460F3E0FCCB6460126334258
:1000F00000D0FB1AA246AB4633431847B4F20000C7
:10010000D4F20000103A02D378C878C1FAD8520766
:1001100001D330C830C101D504680C6070470000BD
:100120000023002400250026103A01D378C1FBD813
:10013000520700D330C100D50B60704710B5662957
:1001400002D10EF08DF910BD642902D10CF012FB22
:1001500010BD782902D10CF043FB10BD002010BD6A
:100160001FB5C046C0460DF075FB040000200021FD
:100170000DF0C6FFE0601FBD10B510BD0DF0F0FE24
:100180001146FFF7EDFF05F0AFFE0DF008FF03B4D9
:10019000FFF7F2FF03BC0BF08EFA00007046400739
:1001A00002D4EFF3088001E0EFF3098081690B8846
:1001B000094A934202D1043181617047042071469B
:1001C000084202D0EFF3098001E0EFF308807146A6
:1001D000024A1047FEE70000ABBE00009BB50000DE
:1001E000ABBE01E000207047002A00D01060012063
:1001F0007047000070B505460C46164602E00FCC6D
:100200000FC5103E102EFAD2082E02D303CC03C520
:10021000083E042E07D301CC01C5361F03E0217828
:100220002970641C6D1C761EF9D270BD0F481049F0
:1002300001601049016010490160104A10491160C5
:10024000104A114911600021016010488047104890
:100250000047FEE7FEE7FEE7FEE7FEE7FEE70000F9
:100260000C480D490B4A0D4B70470000000100502F
:100270005900000016000000880000002400005013
:10028000A55A0000800300501F000000ED0200008E
:10029000C1000000F8000020F8040020F800002051
:1002A00070B52D48006945076D0F00F020F82B4907
:1002B0000860022D03D0A80029490C5801E0274806
:1002C0000468254880690007000F461C3146204617
:1002D0000CF04EFB234908602349224800684A106D
:1002E00080180CF045FB2149086070BD7047FEB5D1
:1002F000002002901EA0006800901748046A0013B6
:10030000044201D00020FEBD0120C004044201D0FF
:10031000184D00E0184D01204004044201D0284649
:10032000F1E7032080032040800B69460A5C0192BC
:10033000E005C00D861C1F2040022040400A871C9B
:10034000019A7A431146AA08724310460CF010FB3A
:10035000800002900298D6E70002005008000020BA
:1003600070E400000000002040420F000400002064
:100370000102020400805101001BB700002107E0C8
:10038000002200E0521C7D231B019A42FAD3491C33
:100390008142F5D37047002105E0002200E0521CA5
:1003A000052AFCD3491C8142F7D3704770470000EF
:1003B0000021082112E08022104203D00122FA4BD2
:1003C0005A6302E00022F84B5A630022F64BDA63CC
:1003D0000122DA634206100E4A1ED1B20029EADC7D
:1003E000704710B504460020EF490863EE494031DC
:1003F00008632046FFF7DCFF0120EB49086310BDCE
:1004000010B504460020E84908630120E649403160
:1004100008632046FFF7CCFF0120E349086310BDC5
:1004200010B504460020E04908630120DE49403150
:1004300008632104080EFFF7BBFFE0B2FFF7B8FF27
:100440000120D949086310BD10B50020D64980317C
:1004500088606420FFF792FF0120D34980318860D3
:100460003220FFF78BFF10BD10B501222021CF48AD
:100470000BF040F801228021CC480BF03BF8012220
:100480000421CA48C0300BF035F801221021C748BA
:1004900080300BF02FF801221021C4480BF02AF80D
:1004A00001220821C148C0300BF024F8032280212A
:1004B000BE480BF01FF803222021BC480BF01AF8AD
:1004C00003220421B948C0300BF014F80322102194
:1004D000B64880300BF00EF803221021B3480BF021
:1004E00009F803220821B148C0300BF003F810BD11
:1004F00010B5FFF7B9FFFFF7A7FF0120AA49803128
:10050000C8601120FFF76DFF7820FFF737FFB1209B
:10051000FFF767FF0120FFF773FF2C20FFF770FF45
:100520002D20FFF76DFFB220FFF75BFF0120FFF7E3
:1005300067FF2C20FFF764FF2D20FFF761FFB3203A
:10054000FFF74FFF0120FFF75BFF2C20FFF758FF5D
:100550002D20FFF755FF0120FFF752FF2C20FFF75A
:100560004FFF2D20FFF74CFFB420FFF73AFF072085
:10057000FFF746FFC020FFF734FFA220FFF740FF40
:100580000220FFF73DFF8420FFF73AFFC120FFF76D
:1005900028FFC520FFF734FFC220FFF722FF0A2003
:1005A000FFF72EFF0020FFF72BFFC320FFF719FFF7
:1005B0008A20FFF725FF2A20FFF722FFC420FFF73C
:1005C00010FF8A20FFF71CFFEE20FFF719FFC52060
:1005D000FFF707FF0E20FFF713FF3620FFF701FF9D
:1005E000C020FFF70DFFC820FFF70AFFE020FFF74C
:1005F000F8FE0F20FFF704FF1A20FFF701FF0F207E
:10060000FFF7FEFE1820FFF7FBFE2F20FFF7F8FE96
:100610002820FFF7F5FE2020FFF7F2FE2220FFF74B
:10062000EFFE1F20FFF7ECFE1B20FFF7E9FE232063
:10063000FFF7E6FE3720FFF7E3FE0020FFF7E0FEBE
:100640000720FFF7DDFE0220FFF7DAFE1020FFF79C
:10065000D7FEE120FFF7C5FE0F20FFF7D1FE1B20DC
:10066000FFF7CEFE0F20FFF7CBFE1720FFF7C8FEE7
:100670003320FFF7C5FE2C20FFF7C2FE2920FFF72D
:10068000BFFE2E20FFF7BCFE3020FFF7B9FE302062
:10069000FFF7B6FE3920FFF7B3FE3F20FFF7B0FEAD
:1006A0000020FFF7ADFE0720FFF7AAFE0320FFF7AB
:1006B000A7FE1020FFF7A4FE2A20FFF792FE0020DD
:1006C000FFF79EFE0020FFF79BFE0020FFF798FE3D
:1006D0007F20FFF795FE2B20FFF783FE0020FFF71A
:1006E0008FFE0020FFF78CFE0020FFF789FE9F2081
:1006F000FFF786FEF020FFF774FE0120FFF780FE73
:10070000F620FFF76EFE0020FFF77AFE3A20FFF793
:1007100068FE0520FFF774FE2920FFF762FE10BD7A
:10072000F0B504460D4616461F462A20FFF759FE2F
:100730000020FFF765FEA11CC8B2FFF761FE002094
:10074000FFF75EFEB11CC8B2FFF75AFE2B20FFF781
:1007500048FE0020FFF754FE691CC8B2FFF750FEA8
:100760000020FFF74DFE791CC8B2FFF749FE2C2090
:10077000FFF737FEF0BD70B506460C461546631C04
:10078000721C21463046FFF7CBFF2846FFF748FE94
:1007900070BD30B504460D462B46224629462046FC
:1007A000FFF7BEFF30BD0000004200504040005047
:1007B00070B506460C461546631C721C2146304631
:1007C000FFF7AEFF2846FFF72BFE70BD70B506465B
:1007D0009F237F2200210846FFF7A2FF00240AE0A2
:1007E000002504E03046FFF71BFE681CC5B2802DD3
:1007F000F8DB601CC4B2A02CF2DB70BD70B50646FD
:100800009F237F2200210846FFF78AFF2C20FFF755
:10081000E8FD002408E0002503E03046FFF700FE75
:100820006D1CA02DF9D3641C802CF4D370BD000086
:1008300006E05920FE4908601620086088200860FC
:10084000FB4800680128F4D170472122F94BDA6097
:100850001A465060916001221A61BFF36F8F00BF8A
:10086000F44A1269002AFBD1704701460020F14A80
:10087000D0601046416001201061BFF36F8F00BF50
:10088000EC4800690028FBD1EA48806870470146BF
:100890002220E84AD0601046416001201061BFF379
:1008A0006F8F00BFE34800690028FBD1E148006872
:1008B0004022104207D0DF4800681043DD4A106034
:1008C0000020C04370470020FCE7FEB500BFDA48B7
:1008D0008068C007C00F00287ED0D8480078002864
:1008E0001CD1D7484069002803D1D5494031486020
:1008F00003E00120D24940314860D1488069002896
:1009000008D1CF4940398862086048604862CD49C3
:10091000087003E00120CA4940398862C74800785E
:10092000002803D0C548007863287DD10AF068F814
:1009300004460AF0FBF80546C3490C70FF2000028C
:100940002040000AC1490870FF2000042040000C2C
:10095000BF490870BF490D70FF2000022840000AFF
:10096000BD490870FF2000042840000CBB490870F6
:1009700008460178B8480078B64A12780092029189
:100980000190B7480378B2480278B0480178AE4881
:10099000007805F055FFB3480078012811D1B2481E
:1009A0000078AB49097888420BD1B0480078A74954
:1009B0000978884205D10120AD490870A049403925
:1009C000C862A8480078012813D1A7484078A049F8
:1009D000097888420DD100E01AE2A44840789B498A
:1009E0000978884205D10020A1490870944940390E
:1009F000C8629C484078012811D19B48807894496E
:100A0000097888420BD199488078904909788842C2
:100A100005D101209649087089494039C86291483A
:100A20004078012813D100E03DE08F48C078884924
:100A3000097888420BD18D48C0788449097888426A
:100A400005D100208A4908707D494039C86285482F
:100A50008078012811D1844800797D49097888423D
:100A60000BD18248007979490978884205D1012063
:100A70007F49087072494039C8627A4880780128F5
:100A800011D1794840797249097888420BD1774869
:100A900040796E490978884205D100207449087070
:100AA00067494039C8626548007800287ED171489E
:100AB00000780028FAD170480068401C6E49086030
:100AC0006EA00BF021FE6C48006805280AD10020BA
:100AD000694908606D4801786D48006806F078F94A
:100AE0006C4908606C480078002878D16B48016830
:100AF0006B4800680DF04CFC0646664801683046BD
:100B00000DF00EFC11D24E48806901280DD14C49E0
:100B1000403948620020086001204860614908703F
:100B200006F09EF860A00BF0EFFD5C4801685C48A1
:100B300000680DF02DFB06465648016830460DF062
:100B40006DFB0FD23E48806901280BD13C494039EA
:100B50004862002048600120086000205149087068
:100B600006F0A1F84E4801684A4800680DF0D8FB2D
:100B70000FD83348806901280BD14A4800780128F2
:100B800007D100202E49403908604860486206F0CD
:100B9000ACF8434801683F4800680DF03FFB10D8AF
:100BA0002748806901280CD13E4800E010E1007818
:100BB000002806D12249403908604860486206F0A2
:100BC00094F81F488069002809D11D494039086000
:100BD0004860486201202749087006F0B1F82E48A5
:100BE000007801287ED12D4801682D4800680DF05D
:100BF000CFFB06462748016830460DF091FB0ED228
:100C00000F48806901280AD10D4940394862002007
:100C10000860012048602349087006F021F8204848
:100C200001681C4800680DF07BFB4FD204483FE090
:100C30000001005000C000500000014018000020DA
:100C400040420050460000202800002029000020DB
:100C50002A0000202C0000202D0000202E00002063
:100C60002B0000202F0000203E0000203800002034
:100C70002400002045000020200000200A20746984
:100C80006D6572302075700A00000000260000209B
:100C900014000020480000201D000020100000204B
:100CA0000C000020250000200A686F74310A000043
:100CB000806901280AD1FE480078012806D1002069
:100CC000FC4908604860486206F00FF8FA4801687D
:100CD000FA4800680DF0A2FA10D2F6484030806958
:100CE000012800E018E009D1F1480078002805D17A
:100CF000F04908604860486205F0F7FFED48403071
:100D00008069002808D1EB490860486048620120EA
:100D1000EB49087006F014F8EA480078022857D129
:100D2000E9480168E44800680DF032FA0646E348F5
:100D3000016830460DF072FA0FD2DE48403080690B
:100D400001280AD1DB494862002048600120086080
:100D50000020D749087005F0A6FFD7480168D7489A
:100D600000680DF0DDFA0FD2D248403080690128CA
:100D70000AD1CF480078012806D10020CD4908606B
:100D80004860486205F0B1FFCB480168CB48006875
:100D90000DF044FA0ED2C74840308069012809D1CD
:100DA000C3480078002805D1C249086048604862FD
:100DB00005F09BFFBF4840308069002808D1BD493D
:100DC0000860486048620120BD49087005F0B8FF1E
:100DD000BB480078012808D1BC480078502804DAC4
:100DE000BA480078401CB9490870B5480078012815
:100DF00008D1B6480078502804DB0020B0490870BC
:100E0000B249087000BF0120B149886000BF00BF2F
:100E1000FEBD10B5A74840304069002803D1A54960
:100E20008031486003E00120A24980314860A14838
:100E300040308069002807D19E4988620860486078
:100E40004862A249087002E001209A498862A148DC
:100E50000178A148006805F0BBFF984908609A48EE
:100E60000168954800680DF093FA044693480168BC
:100E700020460DF055FA13D28E4840308069012883
:100E80000ED105F0EDFE00208D49087089490860FB
:100E90000120486048628649087090A00BF034FC3D
:100EA00089480168844800680DF072F90446834857
:100EB000016820460DF0B2F914D27E4840308069B6
:100EC00001280FD105F0EFFE00207D490870794917
:100ED000486001200860486200207549087081A0C0
:100EE0000BF012FC78480168734800680DF050FA66
:100EF00004467248016820460DF090F91DD87248EA
:100F000001686D4800680DF043F904466B480168BC
:100F100020460DF005FA10D8664840308069012857
:100F20000BD1002066490870624908604860486239
:100F300005F0DBFE6DA00BF0E7FB5E4840308069FA
:100F4000002808D15B4908604860486201205C497C
:100F5000087005F0F5FE10BD70B504460020554937
:100F60008031086010251EE00120C003044204D037
:100F7000012050498031086103E000204D49803153
:100F800008610120FFF707FA01204A498031086013
:100F9000FFF701FA00204749803108600120FFF780
:100FA000FAF964006D1E002DDEDC0020414980311D
:100FB000086070BD1FB550484069082108434E497C
:100FC00048613C4840300068012814D105F087FF93
:100FD00001204A490870032088700020C8703549F4
:100FE00080314860486033498862486008604862E0
:100FF00043A00BF089FB2F484030C068012801D086
:1010000002F08BF93D480078012810D13B488078E8
:1010100003280CD13948C078002808D106F02FF9F0
:1010200002203649087088700020C8701FBD334800
:101030000078022813D13148807802280FD12F4838
:10104000C07800280BD105F04AFF01202B49087019
:10105000032088700020C8701A490870E6E7274806
:101060000078022813D12548807801280FD1234821
:10107000C07801280BD11349087005F030FF01201A
:101080001E490870032088700020C870CEE71B48F6
:101090000078022844D119488078002840D11748A8
:1010A000C07802283CD10749087005F018FF2FE0EE
:1010B00025000020004200500C00002048000020C5
:1010C000450000201D0000201000002046000020E8
:1010D0000000014026000020140000200A686F7400
:1010E0000A0000000A636F6C640A00000A636F6EF6
:1010F0007374616E740A0000C04000501800002034
:10110000733120496E74657272757074210A000023
:101110000120FE490870032088700020C87085E710
:10112000FA480078012810D1F848807802280CD1BC
:10113000F648C078012808D106F07CF90320F3496D
:10114000087088700020C87070E7F04800780328A5
:1011500016D1EE488078032812D1EC48C0780028D8
:101160000ED1EB480078039006F0E1FA0520E7493C
:101170000870032088700020C8700120487055E76F
:10118000E2480078052822D1E048407801281ED1A5
:10119000DE48807803281AD1DC48C078002816D1B0
:1011A000DC4800780390DC4800780290DB48007847
:1011B0000190039A029906F0E4FC3320D3490870A9
:1011C00000204870032088700020C8702EE7CF48A8
:1011D0000078052822D1CD48407801281ED1CB487F
:1011E000807802281AD1C948C078012816D1C94888
:1011F00040780390C84840780290C84840780190F1
:10120000039A029906F084FD3620C0490870002038
:101210004870032088700020C87007E7BB4800783A
:10122000052819D1B9484078012815D1B7488078E8
:10123000012811D1B548C07802280DD1B4480078F2
:10124000039006F01EFC3920B04908700020887019
:10125000C87048700871E9E6AC48007805287DD16F
:10126000AA4840780128FAD1A84880780028F6D109
:10127000A648C0780328F2D106F0DCF80320A34981
:10128000087088700020C8704870FFF7D1FA0BF022
:10129000EDF90BF0F2F9A249086008460168A1A037
:1012A0000BF032FA9E480068FFF7DFFAAA4908609F
:1012B0009B480068001DFFF7D8FAA7494860984886
:1012C00000680830FFF7D1FAA349886094480068A5
:1012D0000C30FFF7CAFAA049C86091480068103086
:1012E000FFF7C3FA9C4908618D4800681430FFF786
:1012F000BCFA9949486108464068032149060840FC
:1013000095494860084640688449097808439249ED
:1013100048600846406880490978090208438E49B8
:101320004860084640687B490978090408438A49AF
:1013300048600846406876490978C907C9090843E2
:101340008549486008468068000E000688600846A7
:1013500080687249497808437F4900E04EE0886020
:10136000084680686C494978090208437A498860D0
:1013700008468068674949780904084376498860C7
:1013800067480068FFF783FA7348006801460390D6
:1013900063480068FFF759FA6F48406801460390B8
:1013A0005F480068001DFFF750FA6B4880680146EF
:1013B00003905B4800680830FFF747FA6648C0684A
:1013C00001460390564800680C30FFF73EFA624829
:1013D000006901460390524800681030FFF735FA63
:1013E0005D484069014603904D4800681430FFF79E
:1013F0002CFA0BF001F904F0EDFF17E643480078F2
:10140000392814D141484078012810D1404800784B
:10141000039006F0DCFA05203C4908700120887032
:101420000220C8700120487000200871FEE537488E
:101430000078332825D135484078002821D1334819
:10144000807803281DD13148C078002819D131484F
:10145000007803903048007802903048007801907E
:10146000039A029906F0C4FD332028490870012030
:10147000487000208870C8707D20C000FEF77EFF95
:10148000D4E522480078332822D12048407801282A
:101490001ED11E48807800281AD11C48C078002828
:1014A00016D11C48007803901B48007802901B4816
:1014B00000780190039A029906F0F6FC3320134954
:1014C000087000204870032088700020C870ADE5C7
:1014D0000E48007833284ED10C48407800284AD175
:1014E0000A488078022846D10848C078012842D1AD
:1014F0000848007803900848007802900748007870
:101500000190039A029906F04FFE27E01800002090
:101510002F0000203E000020380000203200002074
:101520005C00002020204461746120466C61736877
:1015300020426173652041646472657373202E2EAE
:101540002E2E2E2E2E2E2E2E2E2E2E2E2E205B309A
:1015500078253038785D0A006C0000203320FB4984
:1015600008700220487000208870C8707D20C0007C
:10157000FEF704FF5AE5F5480078332822D1F348F6
:10158000407802281ED1F148807800281AD1EF480F
:10159000C078002816D1EE4800780390ED48007816
:1015A0000290ED4800780190039A029906F056FDEA
:1015B0003320E6490870002048700220887001201E
:1015C000C87033E5E1480078332825D1DF484078FA
:1015D000002821D1DD48807801281DD1DB48C07862
:1015E000022819D1DA4800780390DA48007802908E
:1015F000D94800780190039A029906F0AFFE332093
:10160000D24908700320487000208870C8707D207F
:10161000C000FEF7B3FE09E5CC480078332822D19C
:10162000CA48407803281ED1C848807800281AD1BB
:10163000C648C078002816D1C54800780390C54830
:1016400000780290C44800780190039A029906F04D
:10165000E1FD3320BD4908700020487001208870EA
:101660000220C870E2E4B948007833281AD1B7489C
:101670004078002816D1B5488078002812D1B348A8
:10168000C07803280ED1B5480078039006F04FF8D3
:101690000520AE49087001204870032088700020A2
:1016A000C870C3E4A9480078362825D1A7484078F7
:1016B000002821D1A548807803281DD1A348C078EF
:1016C000002819D1A24840780390A248407802909F
:1016D000A14840780190039A029906F089FC3620CF
:1016E0009A4908700120487000208870C8707D20D9
:1016F000C000FEF743FE99E494480078362822D1D2
:101700009248407801281ED19048807800281AD14C
:101710008E48C078002816D18D48407803908D48B7
:10172000407802908C4840780190039A029906F024
:10173000BBFB362085490870002048700320887064
:101740000020C87072E481480078362825D17F488F
:101750004078002821D17D48807802281DD17B481F
:10176000C078012819D17A484078039079484078A8
:101770000290794840780190039A029906F014FD8E
:101780003620724908700220487000208870C870A6
:101790007D20C000FEF7F2FD48E46C480078362852
:1017A00022D16A48407802281ED1684880780028F3
:1017B0001AD16648C078002816D165484078039051
:1017C000644840780290644840780190039A0299F6
:1017D00006F044FC36205D49087000204870022065
:1017E00088700120C87021E458480078362825D137
:1017F00056484078002821D15448807801281DD1CE
:101800005248C078022819D1514840780390514875
:1018100040780290504840780190039A029906F06F
:101820009DFD3620494908700320487000208870CB
:10183000C8707D20C000FEF7A1FD0FE4434800788A
:10184000362822D14148407803281ED13F4880786D
:1018500000281AD13D48C078002816D13C4840786D
:1018600003903C48407802903B4840780190039AAE
:10187000029906F0CFFC36203449087000204870E9
:10188000012088700220C87049E43048007836286A
:101890001AD12E484078002816D12C48807800288C
:1018A00012D12A48C07803280ED12C480078039022
:1018B00005F03DFF052025490870012048700320F0
:1018C00088700020C8702AE420480078032816D1C8
:1018D0001E488078022812D11C48C07801280ED1F9
:1018E0001E484078039006F013FE05201749087043
:1018F000032088700020C870022048700FE413484D
:10190000007805282CD111484078022828D10F48AA
:101910008078032824D10D48C078002820D10C48B5
:10192000807803900B48807802900B488078019073
:10193000039A029906F025F9342004490870002022
:101940004870032088700020C87018E41800002038
:101950003E00002038000020320000202F00002030
:10196000FE480078052822D1FC48407802281ED184
:10197000FA48807802281AD1F848C078012816D190
:10198000F748C0780390F748C0780290F648C078CE
:101990000190039A029906F0BBF93720EF490870CD
:1019A00000204870032088700020C8700EE4EB48C7
:1019B000007805287ED1E94840780228FAD1E74826
:1019C00080780028F6D1E548C0780328F2D105F0E8
:1019D00031FD0320E149087088700020C87048700C
:1019E000FEF726FF0AF042FE0AF047FEDF490860D4
:1019F00008460168DE480AF087FEDC480068FEF70A
:101A000034FFDC490860D9480068001DFEF72DFF4F
:101A1000D8494860D54800680830FEF726FFD54908
:101A20008860D24800680C30FEF71FFFD149C860BB
:101A3000CE4800681030FEF718FFCE490861CB4849
:101A400000681430FEF711FFCA4948610846406833
:101A50007D2149068843C749486008464068C64911
:101A60004978C90789090843C2494860084680681F
:101A70000002000A886008468068BB498978090628
:101A80000843BC4988600020C8600846C068B54962
:101A900089780843B749C8600846C068B049897862
:101AA00009020843B349C8600846C068AE49C9780E
:101AB000090400E054E00843AE49C8600846C06825
:101AC000A849C97809060843AA49C86008460069B8
:101AD000000A0002086108460069A149C978084364
:101AE000A4490861A1480068FEF7D1FEA14800683A
:101AF000014603909D480068FEF7A7FE9D48406898
:101B00000146039099480068001DFEF79EFE994823
:101B1000806801460390954800680830FEF795FEFE
:101B20009448C06801460390904800680C30FEF766
:101B30008CFE90480069014603908C480068103084
:101B4000FEF783FE8B484069014603908748006892
:101B50001430FEF77AFE0AF04FFD04F03BFC4CE433
:101B60007E480078052819D17C484078022815D194
:101B70007A488078012811D17848C07802280DD1A0
:101B80007D484078039005F07CFF3A207349087047
:101B900000208870C870487008712EE46F48007883
:101BA0003A2813D16D48407801280FD17248407807
:101BB000039005F00CFF052068490870012088702B
:101BC0000220C87048700020087116E4634800784D
:101BD000342825D161484078002821D15F48807899
:101BE00003281DD15D48C078002819D15C48807851
:101BF00003905C48807802905B4880780190039A5B
:101C0000029906F0F5F93420544908700120487013
:101C100000208870C8707D20C000FEF7AFFB05E48F
:101C20004E480078342822D14C48407801281ED1F3
:101C30004A48807800281AD14848C078002816D130
:101C400047488078039047488078029046488078DB
:101C50000190039A029906F027F934203F49087051
:101C600000204870032088700020C87008E43B48BA
:101C70000078342825D139484078002821D13748C8
:101C8000807802281DD13548C078012819D1344800
:101C900080780390334880780290334880780190B0
:101CA000039A029906F080FA34202C490870022029
:101CB000487000208870C8707D20C000FEF75EFB71
:101CC00005E426480078342822D1244840780228A8
:101CD0001ED12248807800281AD12048C0780028D8
:101CE00016D11F48807803901E48807802901E48C5
:101CF00080780190039A029906F0B0F934201749D0
:101D0000087000204870022088700120C87031E4FB
:101D100012480078342836D110484078002832D153
:101D20000E48807801282ED10C48C07802282AD18C
:101D30000B48807803900B48807802900A4880789E
:101D40000190039A029906F009FB342003490870B8
:101D50000320487000208870C8700FE01800002031
:101D60003E00002038000020320000205C000020EF
:101D7000241500006C0000202F0000207D20C000F2
:101D8000FEF7FCFA1DE4FE480078342822D1FC4816
:101D9000407803281ED1FA48807800281AD1F848E4
:101DA000C078002816D1F74880780390F6488078EC
:101DB0000290F64880780190039A029906F02AFA78
:101DC0003420EF49087000204870012088700220FC
:101DD000C87020E4EA48007834281AD1E8484078EE
:101DE000002816D1E6488078002812D1E448C0784F
:101DF00003280ED1E6484078039006F089FB0520C1
:101E0000DF49087002204870032088700020C870E5
:101E100028E4DB480078372825D1D94840780028C5
:101E200021D1D748807803281DD1D548C078002813
:101E300019D1D448C0780390D348C0780290D348D1
:101E4000C0780190039A029906F0D2F83720CC4965
:101E500008700120487000208870C8707D20C00084
:101E6000FEF78CFA1DE4C6480078372822D1C44812
:101E7000407801281ED1C248807800281AD1C04875
:101E8000C078002816D1BF48C0780390BE48C078FB
:101E90000290BE48C0780190039A029906F004F8B7
:101EA0003720B74908700020487003208870002050
:101EB000C87020E4B2480078372825D1B04840786F
:101EC000002821D1AE48807802281DD1AC48C078C6
:101ED000012819D1AB48C0780390AB48C078029074
:101EE000AA48C0780190039A029906F05DF937205C
:101EF000A34908700220487000208870C8707D20B7
:101F0000C000FEF73BFA1DE49D480078372822D137
:101F10009B48407802281ED19948807800281AD121
:101F20009748C078002816D19648C0780390964804
:101F3000C07802909548C0780190039A029906F003
:101F40008DF837208E490870002048700220887074
:101F50000120C87020E48A480078372825D18848B5
:101F60004078002821D18648807801281DD18448F6
:101F7000C078022819D18348C07803908248C0787D
:101F800002908248C0780190039A029906F0E6F91F
:101F900037207B4908700320487000208870C87083
:101FA0007D20C000FEF7EAF91DE475480078372867
:101FB00022D17348407803281ED1714880780028C8
:101FC0001AD16F48C078002816D16E48C0780390A7
:101FD0006D48C07802906D48C0780190039A0299CC
:101FE00006F018F937206649087000204870012073
:101FF00088700220C87020E46148007837281AD120
:102000005F484078002816D15D488078002812D1BA
:102010005B48C07803280ED15D484078039006F0F5
:1020200077FA05205649087002204870032088700E
:102030000020C87028E452480078032816D1504880
:102040008078012812D14E48C07802280ED150481D
:102050008078039006F0FCFA0520494908700320B7
:1020600088700020C870032048700DE44448007850
:10207000052822D14248407803281ED14048807864
:1020800003281AD13E48C078002816D13D4800796F
:1020900003903D48007902903C4800790190039AF2
:1020A000029905F06EFD3520354908700020487012
:1020B000032088700020C87005E4314800780528A6
:1020C00022D12F48407803281ED12D48807802283D
:1020D0001AD12B48C078012816D12A48407903909C
:1020E000294840790290294840790190039A029941
:1020F00005F00EFE382022490870002048700320A9
:1021000088700020C87020E41D48007805287DD123
:102110001B484078032879D119488078002875D168
:102120001748C078032871D105F084F903201449B9
:10213000087088700020C8704870FEF779FB0AF0BC
:1021400095FA0AF09AFA134908600846016812489D
:102150000AF0DAFA0F480068FEF787FB0F490860BB
:102160000C480068001DFEF780FB0C4948600948D8
:1021700000680830FEF779FB0849886005480FE0E1
:10218000180000203E00002038000020320000200F
:102190002F0000205C000020241500006C000020AF
:1021A00000680C30FEF761FBFE49C860FE4800681D
:1021B0001030FEF75AFBFB490861FB4800681430F9
:1021C000FEF753FBF74948610846406880018009E3
:1021D000486008464068F5498978C90749090843B5
:1021E000F04948600846007C086108460069F049EB
:1021F000097909020843EB49086108460069ED497D
:10220000097909040843E749086100E05EE00846EF
:102210000069E949097909060843E2490861002093
:10222000486108464069E24949790843DD49486107
:1022300008464069DF49497909020843D94948619C
:1022400008464069DC49497909040843D549486191
:10225000D5480068FEF71BFBD24800680146039092
:10226000D1480068FEF7F1FACE4840680146039075
:10227000CD480068001DFEF7E8FACA4880680146AC
:102280000390C94800680830FEF7DFFAC548C06807
:1022900001460390C44800680C30FEF7D6FAC148E6
:1022A000006901460390C04800681030FEF7CDFA7F
:1022B000BC48406901460390BB4800681430FEF7F3
:1022C000C4FA0AF099F904F085F848E4BB480078AC
:1022D000052819D1B9484078032815D1B748807826
:1022E000012811D1B548C07802280DD1AF488078B7
:1022F000039005F0C6FB3B20B049087000208870B1
:10230000C870487008712AE4AC4800783B2814D1A2
:10231000AA484078012810D1A4488078039005F09D
:1023200056FB0520A5490870012088700220C8705E
:10233000032048700020087111E4A0480078352877
:1023400025D19E484078002821D19C4880780328D8
:102350001DD19A48C078002819D197480079039078
:10236000944800790290924800790190039A02996A
:1023700005F03EFE3520914908700120487000208C
:102380008870C8707D20C000FDF7F8FF05E48B4819
:102390000078352822D18948407801281ED1874805
:1023A000807800281AD18548C078002816D1824844
:1023B000007903907F48007902907D480079019070
:1023C000039A029905F070FD35207C4908700020C1
:1023D0004870032088700020C87020E47748007897
:1023E000352825D175484078002821D17348807858
:1023F00002281DD17148C078012819D16E48007992
:1024000003906C4800790290694800790190039A22
:10241000029905F0C9FE352068490870022048700D
:1024200000208870C8707D20C000FDF7A7FF1DE464
:1024300062480078352822D16048407802281ED1B1
:102440005E48807800281AD15C48C078002816D1F0
:102450005948007903905748007902905448007910
:102460000190039A029905F0F9FD3520534908704F
:1024700000204870022088700120C87020E44F4876
:102480000078352825D14D484078002821D14B4887
:10249000807801281DD14948C078022819D14648C2
:1024A00000790390434800790290414800790190F7
:1024B000039A029905F052FF352040490870032025
:1024C000487000208870C8707D20C000FDF756FF5E
:1024D0001DE43A480078352822D13848407803284E
:1024E0001ED13648807800281AD13448C078002898
:1024F00016D13148007903902E48007902902C487B
:1025000000790190039A029905F084FE35202B4949
:10251000087000204870012088700220C87031E4E3
:1025200026480078352819D124484078002815D14C
:1025300022488078002811D12048C07803280DD186
:102540001A488078039006F083F805201B4908702C
:102550000320487088700020C87013E41748007882
:10256000382834D115484078002830D11348807875
:1025700003282CD11148C078002828D10E48407972
:1025800003900C4840790290094840790190039AE1
:10259000029905F02DFD3820084908700120487087
:1025A00000200DE06C0000205C0000202F000020C7
:1025B00032000020380000203E00002018000020DB
:1025C0008870C8707D20C000FDF7D8FE20E4FE486A
:1025D0000078382822D1FC48407801281ED1FA48DA
:1025E000807800281AD1F848C078002816D1F7481A
:1025F00040790390F64840790290F648407901907E
:10260000039A029905F050FC3820EF490870002029
:102610004870032088700020C87023E4EA480078DE
:10262000382825D1E8484078002821D1E64880782C
:1026300002281DD1E448C078012819D1E348407927
:102640000390E34840790290E24840790190039A70
:10265000029905F0A9FD3820DB4908700220487076
:1026600000208870C8707D20C000FDF787FE20E440
:10267000D5480078382822D1D348407802281ED186
:10268000D148807800281AD1CF48C078002816D1C8
:10269000CE4840790390CE4840790290CD484079A9
:1026A0000190039A029905F0D9FC3820C6490870B8
:1026B00000204870022088700120C87023E4C248BE
:1026C0000078382825D1C0484078002821D1BE485C
:1026D000807801281DD1BC48C078022819D1BB4898
:1026E00040790390BA4840790290BA484079019005
:1026F000039A029905F032FE3820B349087003208E
:10270000487000208870C8707D20C000FDF736FE3C
:1027100020E4AD480078382822D1AB48407803281F
:102720001ED1A948807800281AD1A748C07800286F
:1027300016D1A64840790390A54840790290A54853
:1027400040790190039A029905F064FD38209E4972
:10275000087000204870012088700220C87023E4AF
:1027600099480078382819D197484078002815D121
:1027700095488078002811D19348C07803280DD15E
:1027800095488078039005F063FF05208E49087016
:102790000320487088700020C87005E48A480078DB
:1027A000032813D18848807800280FD18648C07844
:1027B00003280BD104F093FB01208349087000200B
:1027C0004870032088700020C87014E47E480078A8
:1027D000012810D17C48807801280CD17A48C07833
:1027E000022808D105F0D1FF0420774908708870CD
:1027F0000020C8701EE474480078042822D1724872
:10280000807804281ED17048C07800281AD17348F7
:10281000017873480078734A12780092029101900F
:1028200071480378714802787148017871480078DE
:1028300006F007FA0620644908700320887000201B
:10284000C87012E460480078062815D15E48807888
:10285000032811D15C48C07800280DD15F4800786A
:1028600006F03DFC3D2058490870002048707D204E
:10287000C000FDF783FD1FE4534800783D281BD1BD
:102880005648007856490978564A127800920191C4
:1028900002905548037855480278554801785548C4
:1028A000007806F03FFB0620474908700320887037
:1028B0000020C870487026E443480078062813D1E9
:1028C0004148807802280FD13F48C07801280BD1B9
:1028D000434801784348007806F08BFD3E203A4992
:1028E0000870002048700EE4374800783E280BD16D
:1028F0003B4801783B48007806F0E7FD3F2032492D
:10290000087000204870E0E42F4800783F281CD170
:102910003248007832490978324A1278009201919F
:1029200002903148037831480278314801783148C3
:10293000007806F020FC06202349087002208870E9
:102940000120C87000204870BFE41F4800780628A6
:1029500015D11D488078012811D11B48C078022864
:102960000DD122480278224801782248007806F0EA
:102970002CFF40201449087000204870A5E412483C
:10298000007840280DD11948027819480178194873
:10299000007806F0A6FF41200B490870002048701F
:1029A00093E409480078412826D11048027810485D
:1029B00001781048007807F020F84220024908709A
:1029C0000020487081E40000180000203E00002034
:1029D00038000020320000202F0000202E000020B0
:1029E0002D0000202C0000202B0000202A000020B9
:1029F0002900002028000020FE48007842281CD131
:102A0000FD480178FD480078FD4A12780092029155
:102A10000190FC480378FC480278FC480178FC48A7
:102A2000007806F0BEFD0620F249087000204870CC
:102A3000012088700220C87047E4EE48007806281C
:102A400024D1EC488078002820D1EA48C0780328B7
:102A50001CD105F09AFEEE480178EC480078EA4A6D
:102A60001278009202910190E6480378E4480278D7
:102A7000E2480178E048007808F0BAF80420DD491F
:102A8000087088700020C87048701EE4D94800782B
:102A9000042811D1D748807803280DD1D548C078B3
:102AA000012809D107F0FCF80720D249087004205A
:102AB00088700020C87008E4CE48007807281BD131
:102AC000CC488078042817D1CA48C078002813D190
:102AD00005F05BFE0420C749087088700020C870AC
:102AE000CC494861CC48FEF737FA0120FDF753FC8A
:102AF0000120C849486106E4BE48007807281FD174
:102B0000BC48807803281BD1BA48C078012817D167
:102B100005F03BFE0420B749087088700020C8709B
:102B2000BC494861BC48B030FEF716FA0120FDF7F9
:102B300032FCBAA009F0E8FD0120B649486125E45D
:102B4000AC48007807281FD1AA48807802281BD1FA
:102B5000A848C078022817D105F017FE0420A5491F
:102B6000087088700020C870AA494861AA48B83027
:102B7000FEF7F2F90120FDF70EFCAAA009F0C4FD52
:102B80000120A449486128E49A48007807281FD109
:102B90009848807801281BD19648C078032817D11F
:102BA00005F0F3FD04209349087088700020C87078
:102BB000984948619848C130FEF7CEF90120FDF7E9
:102BC000EAFB9AA009F0A0FD01209249486104E4C3
:102BD0008848007807281FD18648807800281BD1B4
:102BE0008448C078042817D105F0CFFD042081491E
:102BF000087088700020C870864948618648CA30CD
:102C0000FEF7AAF90120FDF7C6FB8AA009F07CFDBA
:102C10000120804948610AE476480078042815D1EB
:102C200074488078022811D17248C07802280DD1EA
:102C3000824801788248006807F0D1F908206D4980
:102C40000870022048700020087117E46948007875
:102C500008287DD167484078022879D165480079F5
:102C6000002875D1754801787548006807F0C0FAEA
:102C70000820604908700120487000200871FDF7A5
:102C8000D7FD09F0F3FC09F0F8FC6E49086008462E
:102C90000068FDF7EAFD6C4908606A480068001D9D
:102CA000FDF7E3FD68494860664800680830FDF7B5
:102CB000DCFD65498860634800680C30FDF7D5FD90
:102CC0006149C8605F4800681030FDF7CEFD5E497D
:102CD00008615C4800681430FDF7C7FD5A49486137
:102CE0005648017859A009F00FFD574800680003C5
:102CF000000B52490978C907C90A084352490860BC
:102D000050480068FDF7C3FD4F4800680146039036
:102D10004C480068FDF799FD4B4840680146039018
:102D200048480068001DFDF790FD4748806801464F
:102D30000390444800680830FDF787FD4248C068AA
:102D4000014603903F4800680C30FDF77EFD00E02F
:102D50001AE03D480069014603903A480068103087
:102D6000FDF773FD38484069014603903548006817
:102D70001430FDF76AFD09F03FFC03F02BFB7D20CA
:102D8000C000FDF7FBFA21E41A48007808287DD13D
:102D900018484078012879D105F0F7FC042015493E
:102DA000087088700020C8700871FDF741FD09F0B7
:102DB0005DFC09F062FC2349086008460068FDF7E5
:102DC00054FD214908601F480068001DFDF74DFDB6
:102DD0001D4948601B4800680830FDF746FD1A4948
:102DE0008860184800680C30FDF73FFD1649C86040
:102DF000144831E0180000202E0000202D00002093
:102E00002C0000202B0000202A0000202900002098
:102E10002800002080420050051100000A31307661
:102E20000A0000000A39760A000000000A38760A13
:102E3000000000000A37760A00000000260000208B
:102E4000140000205C0000206C0000200A73796DE3
:102E5000626F6C313A25640000681030FDF705FDA3
:102E6000FE490861FE4800681430FDF7FEFCFB498E
:102E70004861FC49FC4800680BF0FAF903900AF03D
:102E80008FF9FA4908600846016800E04AE0F8A0B6
:102E900009F03AFCF1480068F9490840F34909682B
:102EA00009030843ED490860ED480068FDF7EFFCB1
:102EB000EA48006801460390E9480068FDF7C5FC50
:102EC000E648406801460390E5480068001DFDF7AC
:102ED000BCFCE248806801460390E1480068083085
:102EE000FDF7B3FCDD48C06801460390DC4800688C
:102EF0000C30FDF7AAFCD948006901460390D84878
:102F000000681030FDF7A1FCD448406901460390E9
:102F1000D34800681430FDF798FC09F06DFB03F00E
:102F200059FA1CE4D7480078042815D1D548807890
:102F3000012811D1D348C07803280DD1D2480168A7
:102F4000D248006807F09CF90920CE490870022099
:102F500088700020C87020E4CA480078092815D17C
:102F6000C8488078022811D1C648C07800280DD101
:102F70000120C4494870C4480168C448006807F08B
:102F8000E2FB7D20C000FDF7F9F906E4BD480078BA
:102F900009287DD1BB484078012879D10220B94960
:102FA00088700020C8704870B7480168B74800684A
:102FB00007F033FAFDF73CFC09F058FB09F05DFB24
:102FC000A749086008460068FDF74FFCA349086060
:102FD000A3480068001DFDF748FCA0494860A048D0
:102FE00000680830FDF741FC9C4988609C480068F7
:102FF0000C30FDF73AFC9949C860994800681030D8
:10300000FDF733FC95490861954800681430FDF7D9
:103010002CFC924948619D4800680AF0C1F89C491F
:1030200008608E4800689B49084099490968084330
:103030008A4908608A480068FDF729FC87480068CB
:103040000146039086480068FDF7FFFB834840680F
:103050000146039082480068001DFDF7F6FB7F489B
:103060008068014603907E4800680830FDF7EDFB5C
:103070007A48C06801460390794800680C30FDF733
:10308000E4FB76480069014603907548006800E05B
:1030900010E01030FDF7D9FB7048406901460390FD
:1030A0006F4800681430FDF7D0FB09F0A5FA03F073
:1030B00091F918E473480078092815D1714880788F
:1030C000012811D16F48C07801280DD102206D4927
:1030D00048706D4801686D48006807F08CFB7D20E2
:1030E000C000FDF74BF90EE46648007809287DD151
:1030F00064484078022879D1002062494870012054
:103100008870C870604801686048006807F017FA66
:10311000FDF78EFB09F0AAFA09F0AFFA50490860F2
:1031200008460068FDF7A1FB4C4908604C48006860
:10313000001DFDF79AFB494948604948006808307E
:10314000FDF793FB45498860454800680C30FDF762
:103150008CFB4249C860424800681030FDF785FB8F
:103160003E4908613E4800681430FDF77EFB3B494C
:103170004861454800680AF013F847490860374835
:103180000068464908404449096809020843334930
:10319000086033480068FDF77AFB30480068014654
:1031A00003902F480068FDF750FB2C48406801460B
:1031B00003902B480068001DFDF747FB27488068F7
:1031C00001460390264800680830FDF73EFB23487F
:1031D000C06801460390224800680C30FDF735FBBB
:1031E0001E480069014603901D4800E011E0006898
:1031F0001030FDF72AFB1948406901460390184832
:1032000000681430FDF721FB09F0F6F903F0E2F84D
:1032100012E41C480078092810D11A488078002848
:103220000CD11848C078022808D105F0AEFA042065
:103230001449087088700020C87026E4114800788E
:10324000012851D10F48807800284DD10D48C07811
:10325000032849D112480178124825E06C0000206B
:103260005C000020000020411400002054000020D9
:103270000A74656D7045727231313A25640A000036
:10328000FF0FF00018000020100000200C000020AC
:103290004C00002000FFFF0050000020FFF0FF0066
:1032A0002E0000202D0000200078FE4A12780092A7
:1032B00002910190FC480378FC480278FC480178B0
:1032C000FC48007803F0CDF9FB480278FB48016820
:1032D000FB48006803F0A3FBFDF79BFD0020F949C4
:1032E00008708870C87006E4F6480078042811D188
:1032F000F448807800280DD1F248C078042809D11C
:1033000003F0EDFD0120EF490870032088700020D4
:10331000C87014E4ECA009F0F7F9EF484068012800
:1033200001D001F058FAE748C078002808DDE548E8
:103330008078401CE34988700846C078401EC870F9
:10334000E0480078012809D1DE48C078002805D17E
:10335000DC488078032801D103F052FED948007878
:10336000012809D1D748C078012805D1D5488078EF
:10337000022801D103F08AFED2480078012809D141
:10338000D048C078022805D1CE488078012801D1E4
:1033900003F0EBFECB480078012809D1C948C0787A
:1033A000032805D1C7488078002801D103F033FFF6
:1033B000C4480078022809D1C248C078002805D145
:1033C000C0488078022801D103F0B8FFBD480078DA
:1033D000022809D1BB48C078012805D1B9488078B6
:1033E000012801D103F0CEFFB6480078022809D1A8
:1033F000B448C078022805D1B2488078002801D1AD
:1034000003F0F4FFAF480078032809D1AD48807875
:10341000032805D1AB48C078002801D104F094F806
:10342000A8480078032809D1A6488078022805D149
:10343000A448C078012801D104F0BBF8A148007865
:10344000032809D19F488078012805D19D48C0787C
:10345000022801D104F0FAF89A480078032809D12B
:1034600098488078002805D19648C078032801D173
:1034700004F031F99348007805280DD1914840783F
:10348000012809D18F488078032805D18D48C0785C
:10349000002801D104F0E8F98A480078052810D105
:1034A0008848407801280CD186488078022808D1C5
:1034B0008448C078012804D188480078039004F03B
:1034C00019FA80480078052810D17E4840780128F4
:1034D0000CD17C488078012808D17A48C07802282D
:1034E00004D17E480078039004F071FA75480078A2
:1034F000052810D17348407801280CD17148807894
:10350000002808D16F48C078032804D17348007898
:10351000039004F0FEFA6B480078332818D169480C
:103520004078002814D167488078032810D1654876
:10353000C07800280CD16A48007803906948007868
:103540000290694800780190039A029904F0ACFC5B
:103550005C480078332818D15A484078002814D1A4
:1035600058488078022810D15648C07801280CD1DC
:103570005B48007803905B48007802905A480078D6
:103580000190039A029904F069FD4E4800783328AF
:1035900018D14C484078002814D14A488078012836
:1035A00010D14848C07802280CD14D4800780390CB
:1035B0004C48007802904C4800780190039A029998
:1035C00004F028FE3F480078332818D13D48407861
:1035D000002814D13B488078002810D13948C078A1
:1035E00003280CD13E48007803903E4800780290B2
:1035F0003D4800780190039A029904F0E5FE3148B5
:103600000078332821D12F48407801281DD12D483A
:103610008078002819D12B48C078002815D130486F
:103620000078172804DA2E480078401C2C490870CE
:103630002B48007803902B48007802902A480078A5
:103640000190039A029904F0D3FC1E4800783328B5
:1036500021D11C48407802281DD11A4880780028C2
:1036600019D11848C078002815D11E4800783B2889
:1036700004DA1C480078401C1A4908701848007881
:103680000390184800780290174800780190039A38
:10369000029904F089FD0B480078332846D1094887
:1036A000407823E02C0000202B0000202A0000207E
:1036B00029000020280000202600002014000020FF
:1036C0000C00002018000020733220496E746572CF
:1036D00072757074210A0000404200502F000020D3
:1036E0003E000020380000203200002003281DD1B9
:1036F000FE488078002819D1FC48C078002815D1F0
:10370000FB4800783B2804DAF9480078401CF84967
:103710000870F84800780390F74800780290F44861
:1037200000780190039A029904F018FEEF4800789F
:10373000362818D1ED484078002814D1EB4880781D
:10374000032810D1E948C07800280CD1E948407816
:103750000390E94840780290E54840780190039A48
:10376000029904F0A1FBE1480078362818D1DF481F
:103770004078002814D1DD488078022810D1DB4839
:10378000C07801280CD1DB4840780390DA484078B3
:103790000290D74840780190039A029904F05EFCA9
:1037A000D2480078362818D1D0484078002814D163
:1037B000CE488078012810D1CC48C07802280CD19E
:1037C000CC4840780390CC4840780290C848407874
:1037D0000190039A029904F01DFDC4480078362830
:1037E00018D1C2484078002814D1C04880780028F9
:1037F00010D1BE48C07803280CD1BE484078039051
:10380000BD4840780290BA4840780190039A0299E6
:1038100004F0DAFDB5480078362821D1B348407865
:1038200001281DD1B1488078002819D1AF48C0784F
:10383000002815D1AF484078182804DAAD48407800
:10384000401CAC494870AB4840780390AA48407887
:103850000290A74840780190039A029904F0C8FBAF
:10386000A2480078362821D1A048407802281DD1EE
:103870009E488078002819D19C48C078002815D12E
:103880009D4840783C2804DA9B484078401C9A497F
:103890004870984840780390974840780290944840
:1038A00040780190039A029904F07EFC8F480078DA
:1038B000362821D18D48407803281DD18B48807847
:1038C000002819D18948C078002815D18848407847
:1038D0003C2804DA86484078401C85494870854871
:1038E0004078039084484078029081484078019065
:1038F000039A029904F032FD7C480078392816D1E9
:1039000001207A4948707D480078002803D10120C1
:103910007A49087002E000207849087077480078FA
:10392000039004F0AEF86420FCF728FD70E46F48C3
:10393000007805280DD16D484078022809D16B48E0
:103940008078032805D16948C078002801D103F0A8
:103950008BFF66480078052810D16448407802281B
:103960000CD162488078022808D16048C0780128CC
:1039700004D162484078039003F0BCFF5B480078B4
:10398000052810D15948407802280CD15748807832
:10399000012808D15548C078022804D157484078FA
:1039A000039004F014F851480078052810D14F48CE
:1039B000407802280CD14D488078002808D14B4827
:1039C000C078032804D14D484078039004F0A1F852
:1039D00046480078342818D144484078002814D14B
:1039E00042488078032810D14048C07800280CD184
:1039F0004048807803904048807802903C48807826
:103A00000190039A029904F04FFA3848007834285C
:103A100018D136484078002814D1344880780228DC
:103A200010D13248C07801280CD1324880780390F8
:103A30003148807802902E4880780190039A02994C
:103A400004F00CFB29480078342818D12748407826
:103A5000002814D125488078012810D12348C07847
:103A600002280CD123488078039023488078029064
:103A70001F4880780190039A029904F0CBFB1B4801
:103A80000078342818D119484078002814D11748F4
:103A90008078002810D11548C07803280CD115482B
:103AA00080780390144880780290114880780190C3
:103AB000039A029904F088FC0C48007834282CD131
:103AC0000A484078012828D108488078002824D165
:103AD0000648C078002820D106488078172804DAE4
:103AE00004488078401C0349887009E018000020D1
:103AF000320000203E000020380000202F0000206F
:103B0000FE4880780390FE4880780290FD488078D7
:103B10000190039A029904F06BFAFB48007834286C
:103B200021D1F948407802281DD1F7488078002833
:103B300019D1F548C078002815D1F14880783B2884
:103B400004DAEF488078401CED498870EB488078B3
:103B50000390EB4880780290EA4880780190039ABD
:103B6000029904F021FBE8480078342821D1E64886
:103B7000407803281DD1E4488078002819D1E24814
:103B8000C078002815D1DF4880783B2804DADD486A
:103B90008078401CDB498870D84880780390D848EA
:103BA00080780290D74880780190039A029904F0B7
:103BB000D5FBD5480078372818D1D348407800285D
:103BC00014D1D1488078032810D1CF48C07800287C
:103BD0000CD1CA48C0780390C948C0780290C9483F
:103BE000C0780190039A029904F05EF9C648007803
:103BF000372818D1C4484078002814D1C2488078AA
:103C0000022810D1C048C07801280CD1BB48C07828
:103C10000390BB48C0780290BA48C0780190039ADC
:103C2000029904F01BFAB8480078372818D1B64832
:103C30004078002814D1B4488078012810D1B248C7
:103C4000C07802280CD1AD48C0780390AC48C07849
:103C50000290AC48C0780190039A029904F0DAFA15
:103C6000A9480078372818D1A7484078002814D1EF
:103C7000A5488078002810D1A348C07803280CD12B
:103C80009E48C07803909E48C07802909D48C078B6
:103C90000190039A029904F097FB9B48007837281B
:103CA00021D19948407801281DD197488078002873
:103CB00019D19548C078002815D19048C0781728A8
:103CC00004DA8E48C078401C8C49C8708B48C07894
:103CD00003908B48C07802908A48C0780190039A7C
:103CE000029904F085F988480078372821D1864860
:103CF000407802281DD184488078002819D1824854
:103D0000C078002815D17E48C0783B2804DA7C486A
:103D1000C078401C7A49C8707848C07803907848C9
:103D2000C07802907748C0780190039A029904F015
:103D30003BFA75480078372821D17348407803282A
:103D40001DD171488078002819D16F48C0780028AB
:103D500015D16C48C0783B2804DA6A48C078401C0A
:103D60006849C8706548C07803906548C07802907B
:103D70006448C0780190039A029904F0EFFA62480F
:103D800000783A2817D101205F4948705F48407891
:103D9000002803D101205D49487002E000205B4902
:103DA00048705A484078039003F06BFE7D20C000B5
:103DB000FCF7E4FABAE55448007805280DD15248DA
:103DC0004078032809D150488078032805D14E480F
:103DD000C078002801D103F047FD4B480078052842
:103DE00010D14948407803280CD1474880780228F0
:103DF00008D14548C078012804D144488078039010
:103E000003F078FD40480078052810D13E484078FE
:103E100003280CD13C488078012808D13A48C07862
:103E2000022804D139488078039003F0D0FD364849
:103E30000078052810D13448407803280CD1324846
:103E40008078002808D13048C078032804D12F4852
:103E50008078039003F05DFE2B480078352818D158
:103E600029484078002814D127488078032810D1A9
:103E70002548C07800280CD12048007903902048BC
:103E8000007902901F4800790190039A029904F08A
:103E90000BF81D480078352818D11B4840780028B9
:103EA00014D119488078022810D11748C078012809
:103EB0000CD1124800790390114800790290114802
:103EC00000790190039A029904F0C8F80E4800782E
:103ED000352823D10C48407800281FD10A48807823
:103EE00001281BD10848C078022817D1034800795F
:103EF0000390034800790290024809E03E00002048
:103F00003800002032000020180000202F00002080
:103F100000790190039A029904F07CF9FE48007838
:103F2000352818D1FC484078002814D1FA48807808
:103F3000002810D1F848C07803280CD1F748007940
:103F40000390F74800790290F64800790190039AAF
:103F5000029904F039FAF0480078352821D1EE486A
:103F6000407801281DD1EC488078002819D1EA4812
:103F7000C078002815D1E9480079172804DAE74805
:103F80000079401CE5490871E44800790390E44851
:103F900000790290E34800790190039A029904F0B5
:103FA00027F8DD480078352821D1DB484078022801
:103FB0001DD1D9488078002819D1D748C078002869
:103FC00015D1D74800793B2804DAD5480079401C40
:103FD000D3490871D14800790390D1480079029003
:103FE000D04800790190039A029904F0DDF8CA489C
:103FF0000078352821D1C848407803281DD1C6480B
:104000008078002819D1C448C078002815D1C54847
:1040100000793B2804DAC3480079401CC149087183
:10402000BE4800790390BE4800790290BD480079EF
:104030000190039A029904F091F9B7480078382862
:1040400018D1B5484078002814D1B34880780328A7
:1040500010D1B148C07800280CD1B0484079039005
:10406000AF4840790290AF4840790190039A029995
:1040700003F01AFFA8480078382818D1A6484078DD
:10408000002814D1A4488078022810D1A248C07812
:1040900001280CD1A14840790390A14840790290B1
:1040A000A04840790190039A029903F0D7FF9A48FB
:1040B0000078382818D198484078002814D19648BC
:1040C0008078012810D19448C07802280CD19348F8
:1040D000407903909248407902909248407901904B
:1040E000039A029904F096F88B480078382818D182
:1040F00089484078002814D187488078002810D15A
:104100008548C07803280CD18448407903908448BE
:1041100040790290834840790190039A029904F013
:1041200053F97D480078382821D17B484078012810
:104130001DD179488078002819D17748C0780028A7
:1041400015D176484079182804DA74484079401C23
:1041500072494871714840790390714840790290E2
:10416000704840790190039A029903F041FF6A4830
:104170000078382821D16848407802281DD1664847
:104180008078002819D16448C078002815D1644887
:1041900040793C2804DA62484079401C6049487103
:1041A0005E48407903905E48407902905D484079CE
:1041B0000190039A029903F0F7FF574800783828D6
:1041C00021D15548407803281DD1534880780028D4
:1041D00019D15148C078002815D1524840793C285F
:1041E00004DA50484079401C4E4948714B484079A8
:1041F00003904B48407902904A4840790190039AD5
:10420000029904F0ABF8444800783B2817D101200C
:104210004149487044488078002803D10120424930
:10422000887002E00020404988703F488078039001
:1042300003F027FC7D20C000FCF7A0F8BAE5364863
:104240000078042809D134488078042805D1324800
:10425000C078002801D104F058FB2F4800780428CA
:1042600009D12D488078032805D12B48C078012832
:1042700001D104F08FFB28480078042809D1264892
:104280008078022805D12448C078022801D104F0A2
:10429000E9FB21480078042809D11F4880780128CB
:1042A00005D11D48C078032801D104F040FC1A480C
:1042B000007806281AD118488078032816D11648A5
:1042C000C078002812D11948007819490978194A8C
:1042D00012780092019102901748037817480278EB
:1042E000174801781748007804F01CFE0A48007847
:1042F000062833D10848807802282FD10648C07894
:1043000001282BD10948007809490978094A12780F
:1043100000920191029017E0180000203E0000205A
:1043200038000020320000202F0000202E00002046
:104330002D0000202C0000202B0000202A0000204F
:104340002900002028000020FE480378FE4802785B
:10435000FE480178FE48007804F00DFFFD48007823
:1043600006281AD1FB488078012816D1F948C07870
:10437000022812D1F8480078F8490978F84A1278EA
:10438000009201910290EF480378EF480278EF48DD
:104390000178EF48007805F004F9EE480078062827
:1043A0001AD1EC488078002816D1EA48C078032852
:1043B00012D1E9480178E9480078E94A1278009278
:1043C00002910190DF480378DF480278DF480178E6
:1043D000DF48007805F0A0FBDE4800783D280CD1CE
:1043E000DD480078632804DADB480078401CDA49AD
:1043F0000870D948007804F072FED64800783E284C
:104400000ED1D64800780C2804DAD4480078401C35
:10441000D2490870D1480178D148007804F0E9FF0A
:10442000CC4800783F280ED1CD4800781E2804DA09
:10443000CB480078401CCA490870C8480178C84871
:10444000007805F042F8C3480078402810D1BE48F3
:104450000078172804DABC480078401CBA49087074
:10446000B9480278B9480178B948007805F0ADF943
:10447000B8480078412810D1B44800783B2804DAC5
:10448000B2480078401CB1490870AF480278AF4884
:104490000178AF48007805F024FAAE480078422849
:1044A00010D1AB4800783B2804DAA9480078401CBA
:1044B000A7490870A4480278A4480178A448007865
:1044C00005F09BFAA3480078072809D1A148807815
:1044D000042805D19F48C078002801D105F066FC6A
:1044E0009C480078072809D19A488078032805D18C
:1044F0009848C078012801D105F084FC95480078DF
:10450000072809D193488078022805D19148C078BE
:10451000022801D105F0B6FC8E480078072809D1A1
:104520008C488078012805D18A48C078032801D1B9
:1045300005F0ECFC87480078072809D18548807889
:10454000002805D18348C078042801D105F01BFD5F
:1045500080480078082818D17E484078022814D175
:104560007C480079002810D17E480078002803D1CB
:1045700001207C49087002E000207A4908707948DF
:1045800001787948006805F0F1FD72480078082844
:104590007DD170484078012879D17348006808F0CF
:1045A000D3FD724A724B0391029009F0BFFD13D202
:1045B00000206C4908706C48006808F0C5FD6D4A21
:1045C0006D4B0191009008F03AFC0391029008F0C5
:1045D0007FFA6549086046E06248007800281CD1EF
:1045E00066496148006809F019FE16D200215E484C
:1045F000006809F095FE10D25B48006808F0A4FD41
:104600005C4A5D4B0191009008F019FC0391029007
:1046100008F05EFA5449086025E052480078012805
:1046200021D15148006808F08FFD524A5242544B44
:104630000391029009F07AFD15D200214A480068E2
:1046400009F06EFE0FD24848006808F07DFD494A27
:10465000494B0191009008F0FDFB0391029008F096
:1046600037FA4149086000203A4908713E4800681D
:1046700008F06AFD02460B460391029041A008F043
:1046800043F8384801783848006805F0B1FD3148F2
:104690000078092811D12F48807802280DD12D48A3
:1046A000C078002809D12B484078002805D1394826
:1046B00001683948006805F0B0FE264800780928EE
:1046C00011D12448807801280DD12248C0780128D2
:1046D00009D120484078002805D12E4801682E488D
:1046E000006805F02CFF1B48007809281BD11948E9
:1046F0004078012817D129492748006809F08EFD24
:104700000DD27F21C9052448006809F041FD2249E6
:104710000860204801682048006806F014F800206E
:104720000C498870C8700B480078092850D1094896
:10473000407802284CD118480168184809F028FE32
:1047400003902DE02B0000202A00002029000020EB
:1047500028000020180000202E0000202D0000203E
:104760002C0000202600002014000020FCA9F1D21B
:104770004D62503F9A9999999999B93F0000E0404C
:1047800066661C400A2074656D706572723A256613
:104790000A000000100000200C00002000000C4265
:1047A000FE480168039809F0BBFD0DD27F21C905C1
:1047B000FA48006809F0ECFCF8490860084601680E
:1047C000F748006806F017F80020F6498870C870AE
:1047D000F5A007F099FFF8488068012801D001F0A2
:1047E00001FAF0488078002808DDEE48C078401CC7
:1047F000EC49C87008468078401E8870E948007807
:10480000012809D1E748C078012805D1E54880781A
:10481000022801D102F03AFCE2480078012809D1CF
:10482000E048C078022805D1DE488078012801D10F
:1048300002F09BFCDB480078012809D1D948C078F8
:10484000032805D1D7488078002801D102F0E3FC85
:10485000D4480078022809D1D248C078012805D16F
:10486000D0488078012801D102F08CFDCD48007835
:10487000022809D1CB48C078022805D1C9488078E0
:10488000002801D102F0B2FDC6480078032809D102
:10489000C4488078022805D1C248C078012801D1D7
:1048A00002F087FEBF480078032809D1BD48807810
:1048B000012805D1BB48C078022801D102F0C6FE0C
:1048C000B8480078032809D1B6488078002805D177
:1048D000B448C078032801D102F0FDFEB148007849
:1048E00005280DD1AF484078012809D1AD4880781E
:1048F000032805D1AB48C078002801D102F0B4FFED
:10490000A8480078052810D1A648407801280CD185
:10491000A4488078022808D1A248C078012804D190
:10492000A6480078039002F0E5FF9E48007805282D
:1049300010D19C48407801280CD19A4880780128F1
:1049400008D19848C078022804D19C480078039088
:1049500003F03DF893480078052810D1914840783D
:1049600001280CD18F488078002808D18D48C07864
:10497000032804D191480078039003F0CAF88948CD
:104980000078332818D187484078002814D185480A
:104990008078032810D18348C07800280CD188483B
:1049A000007803908748007802908748007801904B
:1049B000039A029903F078FA7A480078332818D1DC
:1049C00078484078002814D176488078022810D1A1
:1049D0007448C07801280CD1794800780390794850
:1049E00000780290784800780190039A029903F0C9
:1049F00035FB6C480078332818D16A484078002885
:104A000014D168488078012810D16648C0780228FF
:104A10000CD16B48007803906A48007802906A488D
:104A200000780190039A029903F0F4FB5D48007846
:104A3000332818D15B484078002814D15948807831
:104A4000002810D15748C07803280CD15C48007862
:104A500003905C48007802905B4800780190039ACC
:104A6000029903F0B1FC4F480078332821D14D481A
:104A7000407801281DD14B488078002819D1494839
:104A8000C078002815D14E480078002804DD4C4835
:104A90000078401E4A490870494800780390494808
:104AA00000780290484800780190039A029903F038
:104AB0009FFA3C480078332821D13A4840780228B0
:104AC0001DD138488078002819D13648C078002890
:104AD00015D13C480078002804DD3A480078401E93
:104AE00038490870364800780390364800780290BC
:104AF000354800780190039A029903F055FB294844
:104B00000078332821D12748407803281DD1254833
:104B10008078002819D12348C078002815D12A4868
:104B20000078002804DD28480078401E26490870D7
:104B300023480078039023480078029022480078A8
:104B40000190039A029903F009FC16480078362870
:104B500018D114484078002814D1124880780328CE
:104B600010D11048C07800280CD115484078039027
:104B7000144840780290144840780190039A0299B2
:104B800003F092F907480078362831D1054840787B
:104B900000282DD103488078022817E0100000205B
:104BA0000C00002018000020733320496E746572D9
:104BB00072757074210A0000404200502F000020DE
:104BC0003E000020380000203200002010D1FE48B6
:104BD000C07801280CD1FD4840780390FC4840780B
:104BE0000290FC4840780190039A029903F036FA4B
:104BF000F5480078362818D1F3484078002814D1B9
:104C0000F1488078012810D1EF48C07802280CD1F3
:104C1000EE4840780390EE4840780290ED484078A6
:104C20000190039A029903F0F5FAE74800783628D4
:104C300018D1E5484078002814D1E348807800284E
:104C400010D1E148C07803280CD1E04840780390A7
:104C5000DF4840780290DF4840780190039A02993B
:104C600003F0B2FBD8480078362821D1D6484078E6
:104C700001281DD1D4488078002819D1D248C078A5
:104C8000002815D1D1484078002804DDCF4840786D
:104C9000401ECE494870CD4840780390CC484078BB
:104CA0000290CC4840780190039A029903F0A0F951
:104CB000C5480078362821D1C348407802281DD144
:104CC000C1488078002819D1BF48C078002815D184
:104CD000BF484078002804DDBD484078401EBC49EC
:104CE0004870BA4840780390B94840780290B94873
:104CF00040780190039A029903F056FAB24800787E
:104D0000362821D1B048407803281DD1AE4880789C
:104D1000002819D1AC48C078002815D1AD4840789A
:104D2000002804DDAB484078401EAA494870A748D7
:104D300040780390A64840780290A64840780190B9
:104D4000039A029903F00AFB9F480078392818D18A
:104D500001209D494870A0480078002803D1012017
:104D60009D49087002E000209B4908709A4800782D
:104D7000039002F086FE7D20C000FBF7FFFAFCF7EF
:104D800055F99148007805280DD18F4840780228C0
:104D900009D18D488078032805D18B48C078002838
:104DA00001D102F061FD88480078052810D18648BD
:104DB000407802280CD184488078022808D18248A3
:104DC000C078012804D184484078039002F092FD15
:104DD0007D480078052810D17B48407802280CD106
:104DE00079488078012808D17748C078022804D112
:104DF00079484078039002F0EAFD7348007805286E
:104E000010D17148407802280CD16F488078002872
:104E100008D16D48C078032804D16F4840780390CA
:104E200002F077FE68480078342818D16648407848
:104E3000002814D164488078032810D16248C078D3
:104E400000280CD1614880780390614880780290F6
:104E5000604880780190039A029903F025F85A4837
:104E60000078342818D158484078002814D1564882
:104E70008078022810D15448C07801280CD15348BA
:104E80008078039052488078029052488078019050
:104E9000039A029903F0E2F84B480078342818D1BD
:104EA00049484078002814D147488078012810D11B
:104EB0004548C07802280CD1444880780390444883
:104EC00080780290434880780190039A029903F019
:104ED000A1F93D480078342818D13B484078002893
:104EE00014D139488078002810D13748C078032879
:104EF0000CD1364880780390354880780290354848
:104F000080780190039A029903F05EFA2E480078A7
:104F1000342821D12C48407801281DD12A48807896
:104F2000002819D12848C078002815D12748807852
:104F3000002804DD25488078401E244988702348D5
:104F400080780390224880780290224880780190EF
:104F5000039A029903F04CF81B480078342821D1B9
:104F60001948407802281DD117488078002819D1A7
:104F70001548C078002815D115488078002804DD30
:104F800013488078401E124988701048807803903A
:104F90000F48807802900F4880780190039A029918
:104FA00003F002F90848007834282CD106484078EC
:104FB000032828D104488078002824D10248C078EA
:104FC000002820D1034809E0180000203E000020FE
:104FD00038000020320000202F00002080780028B8
:104FE00004DDFE488078401EFC498870FC488078CB
:104FF0000390FC4880780290F84880780190039AEA
:10500000029903F0ABF9F8480078372818D1F64830
:105010004078002814D1F4488078032810D1F24851
:10502000C07800280CD1EE48C0780390ED48C078D5
:105030000290EA48C0780190039A029902F034FF86
:10504000E9480078372818D1E7484078002814D17B
:10505000E5488078022810D1E348C07801280CD1B7
:10506000DF48C0780390DF48C0780290DB48C07802
:105070000190039A029902F0F1FFDB48007837288B
:1050800018D1D9484078002814D1D7488078012811
:1050900010D1D548C07802280CD1D148C0780390EF
:1050A000D048C0780290CD48C0780190039A029908
:1050B00003F0B0F8CC480078372818D1CA484078B7
:1050C000002814D1C8488078002810D1C648C0787C
:1050D00003280CD1C248C0780390C248C07802901F
:1050E000BE48C0780190039A029903F06DF9BE485A
:1050F0000078372821D1BC48407801281DD1BA4812
:105100008078002819D1B848C078002815D1B44853
:10511000C078002804DDB248C078401EB049C8708D
:10512000AF48C0780390AF48C0780290AB48C078D1
:105130000190039A029902F05BFFAB480078372890
:1051400021D1A948407802281DD1A748807800289D
:1051500019D1A548C078002815D1A248C0780028E8
:1051600004DDA048C078401E9E49C8709C48C078A5
:1051700003909C48C07802909848C0780190039AA8
:10518000029903F011F898480078372821D1964801
:10519000407803281DD194488078002819D192487E
:1051A000C078002815D18D48C078002804DD8B48D0
:1051B000C078401E8949C8708948C07803908948E2
:1051C000C07802908548C0780190039A029903F054
:1051D000C5F8854800783A2817D1012082494870DF
:1051E00082484078002803D101208049487002E0BD
:1051F00000207E4948707D484078039002F041FCD1
:105200007D20C000FBF7BAF8B9E57748007805289B
:105210000DD175484078032809D173488078032858
:1052200005D17148C078002801D102F01DFB6E48FD
:105230000078052810D16C48407803280CD16A48C2
:105240008078022808D16848C078012804D16748CE
:105250008078039002F04EFB63480078052810D157
:105260006148407803280CD15F488078012808D134
:105270005D48C078022804D15C488078039002F031
:10528000A6FB59480078052810D1574840780328D4
:105290000CD155488078002808D15348C07803289D
:1052A00004D152488078039002F033FC4E480078D5
:1052B000352818D14C484078002814D14A488078C5
:1052C000032810D14848C07800280CD14448007900
:1052D0000390444800790290404800790190039A75
:1052E000029902F0E1FD40480078352818D13E4887
:1052F0004078002814D13C488078022810D13A48E0
:10530000C07801280CD136480079039035480079DF
:105310000290324800790190039A029902F09EFEB1
:1053200031480078352818D12F484078002814D10A
:105330002D488078012810D12B48C07802280CD144
:105340002748007903902748007902902348007984
:105350000190039A029902F05DFF234800783528F6
:1053600018D121484078002814D11F48807800289F
:1053700010D11D48C07803280CD11948007903903A
:10538000184800790290154800790190039A029913
:1053900003F01AF81448007835282CD112484078C8
:1053A000012828D110488078002824D10E48C078E0
:1053B000002820D10A480079002804DD0848007937
:1053C000401E074908710648007903900548007996
:1053D0000290024800790190039A09E0320000200F
:1053E0003E00002038000020180000202F00002080
:1053F000029902F0FDFDFE480078352821D1FC48D5
:10540000407802281DD1FA488078002819D1F84840
:10541000C078002815D1F7480079002804DDF54848
:105420000079401EF3490871F34800790390F14870
:1054300000790290F14800790190039A029902F0F4
:10544000B3FEEB480078352821D1E948407803289D
:105450001DD1E7488078002819D1E548C078002898
:1054600015D1E6480079002804DDE4480079401EA3
:10547000E2490871E04800790390DE480079029023
:10548000DE4800790190039A029902F067FFD8483C
:105490000078382818D1D6484078002814D1D4484C
:1054A0008078032810D1D248C07800280CD1D24887
:1054B00040790390CF4840790290D04840790190DC
:1054C000039A029902F0F0FCC9480078382818D1F4
:1054D000C7484078002814D1C5488078022810D1E8
:1054E000C348C07801280CD1C34840790390C14813
:1054F00040790290C14840790190039A029902F0E4
:10550000ADFDBB480078382818D1B948407800284C
:1055100014D1B7488078012810D1B548C078022846
:105520000CD1B54840790390B24840790290B34815
:1055300040790190039A029902F06CFEAC48007821
:10554000382818D1AA484078002814D1A848807873
:10555000002810D1A648C07803280CD1A64840796D
:105560000390A44840790290A44840790190039A9E
:10557000029902F029FF9E480078382821D19C48E2
:10558000407801281DD19A488078002819D1984880
:10559000C078002815D198484079002804DD964845
:1055A0004079401E9449487193484079039091484E
:1055B00040790290914840790190039A029902F053
:1055C00017FD8B480078382821D189484078022877
:1055D0001DD187488078002819D18548C0780028D7
:1055E00015D184484079002804DD82484079401E66
:1055F000804948718048407903907E484079029004
:105600007E4840790190039A029902F0CDFD7848D6
:105610000078382821D17648407803281DD1744875
:105620008078002819D17248C078002815D17348B5
:105630004079002804DD71484079401E6F49487167
:105640006D48407903906B48407902906B484079EF
:105650000190039A029902F081FE654800783B2888
:1056600017D101206249487065488078002803D12D
:1056700001206349887002E0002061498870604819
:105680008078039002F0FDF97D20C000FAF776FEE5
:10569000BAE557480078042809D15548807803288E
:1056A00005D15348C078012801D103F073F950485F
:1056B0000078042809D14E488078022805D14C484A
:1056C000C078022801D103F0CDF9494800780428B8
:1056D00009D147488078012805D14548C07803287A
:1056E00001D103F024FA42480078042809D1404847
:1056F0008078002805D13E48C078042801D103F005
:105700006CFA3B48007806281AD13948807803287B
:1057100016D13748C078002812D13A4800783A4963
:1057200009783A4A12780092019102903848037839
:1057300038480278384801783848007803F0F2FB9E
:105740002B48007806281AD129488078022816D1DB
:105750002748C078012812D12A4800782A490978B8
:105760002A4A127800920191029029480378294828
:105770000278294801782948007803F0FCFC1C488D
:10578000007806281AD11A488078012816D11848BE
:10579000C078022812D11B4801781B4800781B4AA8
:1057A0001278009202910190194803781948027802
:1057B000194801781948007803F0F3FE0C48007886
:1057C000062833D10A48807800282FD10848C078AD
:1057D00003282BD10B4800780B4909780B4A127823
:1057E0000092019102900A4803780A48027817E073
:1057F00018000020380000203E0000203200002069
:105800002F0000202E0000202D0000202C00002062
:105810002B0000202A000020290000202800002062
:10582000F9480178F948007804F076F9F8480078EA
:105830003D280FD10120F6494870F648007800282D
:1058400004DDF4480078401EF2490870F148007801
:1058500003F045FCEE4800783E2811D10120EC49C8
:105860004870ED480078012804DDEB480078401EC0
:10587000E9490870E8480178E848007803F0B9FD84
:10588000E34800783F2811D10120E1494870E348FE
:105890000078012804DDE1480078401EDF490870E7
:1058A000DD480178DD48007803F00FFED848007825
:1058B000402813D10120D6494870D94800780028E3
:1058C00004DDD7480078401ED5490870D4480278D6
:1058D000CD480178CD48007803F077FFCC480078B8
:1058E000412813D10120CA494870C74800780028D0
:1058F00004DDC5480078401EC3490870C8480278D6
:10590000C1480178C148007803F0EBFFC048007837
:10591000422813D10120BE494870BC4800780028B5
:1059200004DDBA480078401EB8490870BC480278C7
:10593000B5480178B548007804F05FF8B4480078BD
:10594000072809D1B2488078042805D1B048C0782A
:10595000002801D104F02AFAAD480078072809D1BF
:10596000AB488078032805D1A948C078012801D127
:1059700004F048FAA6480078072809D1A44880789E
:10598000022805D1A248C078022801D104F07AFA91
:105990009F480078072809D19D488078012805D1C3
:1059A0009B48C078032801D104F0B0FA98480078E9
:1059B000072809D196488078002805D19448C078F6
:1059C000042801D104F0DFFA91480078082818D1A2
:1059D0008F484078022814D18D480079002810D1D2
:1059E00090480078002803D101208E49087002E019
:1059F00000208C4908708B4801788B48006804F0BF
:105A0000B5FB8348007808287DD18148407801287B
:105A100079D18548006807F097FB844A844B03914D
:105A2000029008F083FB13D201207E4908707E4863
:105A3000006807F089FB7F4A7F4B0191009007F0D7
:105A4000FEF90391029007F043F87749086046E0B9
:105A500074480078002822D100217348006808F0BB
:105A60005FFC1CD27048006807F06EFB714A52421E
:105A7000724B0391029008F059FB10D26A480068FB
:105A800007F062FB6B4A6C4B0191009007F0E2F962
:105A90000391029007F01CF8634908601FE0614819
:105AA000007801281BD100215F48006808F038FC0D
:105AB00015D263495C48006808F0B0FB0FD25A4821
:105AC000006807F041FB5B4A5B4B0191009007F0D7
:105AD000B6F90391029006F0FBFF534908600020DD
